:020000040000FA
:10E00000C04C012051E30000C5200100C9FA000006
:10E01000BD2001004DEA0000A94D010000000000F4
:10E0200000000000000000000000000095E2000079
:10E0300009F7000000000000E9E20000E5350100FA
:10E04000D1FA0000E5FA0000F9FA00000DFB00002B
:10E0500021FB000035FB000049FB00005DFB0000D8
:10E0600071FB000085FB000099FB0000ADFB000088
:10E07000C1FB0000D5FB0000E9FB0000FDFB000038
:10E0800011FC000025FC000039FC00004DFC0000E4
:10E0900061FC000075FC000089FC00009DFC000094
:10E0A000B1FC0000C5FC0000D9FC0000EDFC000044
:10E0B00001FD000015FD000029FD00003DFD0000F0
:10E0C00051FD000069FD000081FD000099FD000088
:10E0D000B1FD0000C9FD0000E1FD0000F9FD0000F8
:10E0E00011FE000029FE000041FE000059FE000064
:10E0F00071FE000089FE0000A1FE0000B9FE0000D4
:10E10000D1FE0000E9FE000001FF000019FF000041
:10E1100031FF000049FF000061FF000079FF0000AF
:10E1200091FF0000A9FF0000C1FF0000D9FF00001F
:10E13000F1FF000009000100210001003900010089
:10E1400051000100690001008100010099000100F7
:10E15000B1000100C9000100E1000100F900010067
:10E1600011010100290101004101010059010100D3
:10E170007101010089010100A1010100B901010043
:10E18000D1010100E90101000102010019020100B1
:10E19000310201004902010061020100790201001F
:10E1A00091020100A9020100C1020100D90201008F
:10E1B000F1020100090301002103010039030100FC
:10E1C000510301006903010081030100990301006B
:10E1D000B1030100C9030100E1030100F9030100DB
:10E1E0001104010029040100410401005904010047
:10E1F0007104010089040100A1040100B9040100B7
:10E20000D1040100E9040100010501001905010024
:10E210003105010049050100610501007905010092
:10E2200091050100A9050100C1050100D905010002
:10E23000F10501000906010021060100390601006F
:10E2400051060100A1070100090C0100E50C0100C5
:10E25000AD0F010093E3000093E3000093E300009F
:10E260001D1101003D140100C51601000119010036
:10E27000291A01003D1C0100991E0100AD1F01007B
:10E28000DFF80CD000F002FB00480047B98701001E
:10E29000C04C01202B4B19680868B0E8F04F80F3A0
:10E2A0000988BFF36F8F4FF0000080F3118870472B
:10E2B0000000000006480068006880F3088862B625
:10E2C00061B6BFF34F8FBFF36F8F00DF00BF00BF9A
:10E2D00008ED00E0DFF80C00016841F47001016016
:10E2E000704700BF88ED00E0EFF30980BFF36F8F48
:10E2F000144B1A681EF0100F08BF20ED108A20E999
:10E30000F04F106008B44FF0500080F31188BFF355
:10E310004F8FBFF36F8F0EF07BF84FF0000080F34C
:10E32000118808BC19680868B0E8F04F1EF0100F9B
:10E3300008BFB0EC108A80F30988BFF36F8F704775
:10E3400000BF00BF84A6FF1FEFF3058070470000E9
:10E3500010484FF0770101600F484FF077010160DE
:10E360000E484FF4885101600A484FF07601016071
:10E3700009484FF076010160094880470948004785
:10E38000FEE7FEE7FEE7FEE7FEE7FEE7FEE7FEE765
:10E39000FEE7FEE7040805400C08054000080540BC
:10E3A0008937010081E200002DE9F05F0546002079
:10E3B00092469B4688460646814640241BE02846F6
:10E3C00041464746224600F098F853465A46C01A3E
:10E3D000914110D311461846224600F07FF82D1ABD
:10E3E00067EB01084F4622460120002100F076F835
:10E3F00017EB00094E41201EA4F10104DFDC484662
:10E4000031462A464346BDE8F09F40EA01039B0798
:10E4100003D009E008C9121F08C0042AFAD203E099
:10E4200011F8013B00F8013B521EF9D27047D2B2FD
:10E4300001E000F8012B491EFBD270470022F6E7ED
:10E4400010B513460A4604461946FFF7F0FF20466A
:10E4500010BD30B505462A460B4612F8010B13F8DD
:10E46000014B08B1A042F8D01CB1002802D06D1CAD
:10E47000F1E7284630BD10B5044604E00B7800F8FB
:10E48000013B03B1491C521EF8D2204610BDCAB24E
:10E49000401E10F8011F8A4202D00029F9D1002045
:10E4A0007047421C10F8011B0029FBD1801A7047ED
:10E4B00030B50B46014600202022012409E021FA54
:10E4C00002F59D4205D303FA02F5491B04FA02F551
:10E4D0002844151EA2F10102F1DC30BD202A04DB24
:10E4E000203A00FA02F1002070479140C2F1200367
:10E4F00020FA03F3194390407047202A04DB203AA6
:10E5000021FA02F00021704721FA02F3D040C2F153
:10E51000200291400843194670472DE9FE4F80467E
:10E5200081EA0300C00F0C46009021F0004123F067
:10E530000045B8EB0200A94105D24046214690466D
:10E540001C460B46024623F00040104347D0270DDF
:10E55000C7F30A00C3F30A510290401A0190402801
:10E560006BDAC3F3130040F4801B0098924620B18D
:10E570000023D2EB030A63EB0B0B01985946C0F161
:10E5800040025046FFF7AAFF06460D465046594640
:10E59000019A00F08DF910EB08006141002487EA30
:10E5A000115284EAE7731A4340D0009A62B3019A89
:10E5B000012A4FEA075215DC001B61EB02014FF004
:10E5C000004202EA0752CDE90042001C41F58011E9
:10E5D00032462B4600F08DF903B0BDE8F08F40467F
:10E5E0002146F9E7001B61EB0201001C41F5801395
:10E5F00000185B412018A2F5001747EB030140EA21
:10E60000D570B6196D4111E06D084FEA360645EA3E
:10E61000C0754FEA0752001B61EB0201001C41F577
:10E62000801149084FEA30000019514132462B460B
:10E6300003B0BDE8F04F00F04DB900980122400052
:10E640000023D0EB020263EBE073009821464FEA0F
:10E65000E074B8EB000061EB0401E9E783F00043EC
:10E660005BE781F0004158E72DE9FE4F81EA0304A2
:10E6700004F0004421F0004100944FF0000B23F01F
:10E68000004350EA01045ED052EA03045BD0C3F3B6
:10E690000A54C1F30A552C44A4F2F3340194A0FBAC
:10E6A0000254C1F3130141F48011C3F3130343F483
:10E6B000801301FB024400FB034E840A970A44EADC
:10E6C000815447EA8357A4FB076802958D0A05FB2E
:10E6D00007854FEA932C04FB0C542705029D4FEA53
:10E6E000065847EA1637B5EB08056EEB070C870EA0
:10E6F000920E47EA811742EA8312A7FB0201B6EBAA
:10E700000B0164EB00042B0D43EA0C335E1844EB61
:10E710001C50DA465146E7FB0201C5F313044FEAE9
:10E720000B3343EA14534FEA0432019C43EA0603D5
:10E73000A4F10C040294009CCDE900B400F0D9F8D7
:10E7400003B0BDE8F08F00200146F9E72DE9F04D58
:10E7500081EA030404F0004B21F0004514464FF019
:10E76000000A23F0004150EA050220D054EA0102D9
:10E770001DD0C5F30A570246C5F31303C1F31300B6
:10E78000C1F30A5640F4801543F48013A7EB060842
:10E79000101BD64608F2FD3873EB050002D308F1D2
:10E7A000010801E092185B41B8F1000F03DA002084
:10E7B0000146BDE8F08D00204FF4801106468446E6
:10E7C0000EE0171B73EB050705D3121B63EB050364
:10E7D00006434CEA010C49084FEA300092185B41AD
:10E7E00050EA0107EDD152EA030012D082EA040098
:10E7F00083EA0501084305D0101BAB4106D2012274
:10E80000002306E000224FF0004302E06FF0010217
:10E8100053101AEB06004CEB085110EB0A0041EBC9
:10E820000B01BDE8F04D00F055B8C1F30A52C1F339
:10E83000130140F2FF3341F480119A4202DA0020C2
:10E840000146704740F233439A42A2F2334202DC5F
:10E850005242FFF752BEFFF741BE000030B5041E22
:10E8600071F1000404DB4FF00044404264EB01010D
:10E87000141E73F1000405DB1C464FF000435242A6
:10E8800063EB0403994208BF904230BD064C074D2C
:10E8900006E0E06840F0010394E807009847103470
:10E8A000AC42F6D3FFF7F0FC90D10100B0D10100EB
:10E8B000202A06DBCB17203A41FA02F043EAE07344
:10E8C00006E041FA02F3D040C2F120029140084331
:10E8D0001946704710B5141E73F1000408DA401C85
:10E8E00041F1000192185B411A4301D120F001006F
:10E8F00010BD2DE9F04D92469B4611B1B1FA81F25F
:10E9000002E0B0FA80F220329046FFF7E7FD0446BD
:10E910000F4640EA0A0041EA0B0153465A460843B3
:10E9200013D0114653EA010019D0C8F140025046F5
:10E93000FFF7E3FD05460E46504659464246FFF7AF
:10E94000CDFD084305D0012004E020463946BDE84E
:10E95000F08D0020054346EAE0762C4337430A98C1
:10E960006305E40AA0EB08000022FD0A44EA4754CC
:10E970000A3002D500200146E9E701051019694176
:10E98000DDE9084500196941BDE8F04DA2E770B521
:10E990008C1810F8015B15F0070301D110F8013B4A
:10E9A0002A1106D110F8012B03E010F8016B01F8D1
:10E9B000016B5B1EF9D12B0705D40023521E0DD429
:10E9C00001F8013BFAE710F8013BCB1A921C03E077
:10E9D00013F8015B01F8015B521EF9D5A142D8D3AF
:10E9E000002070BD2DE9F04705460E46144600276D
:10E9F0000021284605F0D6FA80460121284605F078
:10EA0000D1FA8146012C07D1B8F1010F02D0B9F13A
:10EA1000010F08D1012706E03146284605F0C2FA69
:10EA2000012800D10127012F0BD1002001E000BFF8
:10EA3000401C0549096842F21072B1FBF2F18142B3
:10EA4000F5D8BDE8F0870000E8A6FF1F10B5AFF3CA
:10EA5000008010BD70B5044600BF3CB1012C05D04C
:10EA6000022C03D0032C01D0042C00D104E040F28E
:10EA700042611EA000F026FE00BF34B1012C0DD073
:10EA8000022C14D0032C24D11AE02248007800F084
:10EA9000010080F0010080F0010524E01D480078AD
:10EAA000C0F3C00080F0010080F001051BE01948B0
:10EAB0000078C0F3401080F0010080F0010512E002
:10EAC00014480078C0F3801080F0010080F0010548
:10EAD00009E01048401D007800F0010080F00100BE
:10EAE00080F0010500BF00BF284670BD2E2E5C736C
:10EAF0006F757263655C6273705F6472697665726C
:10EB00005C7372635C68633332663436785F636C5F
:10EB10006B2E63003C400540F8B504460020009091
:10EB200000262F4800884AF2015108432D49A1F8D8
:10EB3000FE0300BF0CB1012C00D104E040F24321E0
:10EB400029A000F0BFFD00BF44BB26482630007856
:10EB500000F0070008B9012636E02D480068C0F330
:10EB6000C01088B11F482A30007800F0010008B9B1
:10EB7000012629E01B483630007820F00100401CB7
:10EB8000184981F836001FE016483630007820F02A
:10EB90000100401C134981F8360015E01148363059
:10EBA000007820F001000F4981F8360000BF0020F6
:10EBB000FFF750FF05460098401C00900098B0F504
:10EBC000805F01D2012DF2D1054800884FF6FE7119
:10EBD000084040F425400349A1F8FE033046F8BD43
:10EBE000FE430540004005402E2E5C736F75726336
:10EBF000655C6273705F6472697665725C73726380
:10EC00005C68633332663436785F636C6B2E630006
:10EC100000410540F8B5044600200090002600BFE2
:10EC20000CB1012C00D104E040F24F3120A000F0E3
:10EC300049FD00BF284800884AF20151084327498E
:10EC4000A1F8FE0394B925482630007800F00700AB
:10EC5000052801D101261FE020482A30007820F045
:10EC60000100401C1D4981F82A0015E01B482A308C
:10EC7000007820F00100194981F82A0000BF022025
:10EC8000FFF7E8FE05460098401C00900098B0F59C
:10EC9000805F01D2012DF2D10F4800884FF6FE713E
:10ECA000084040F425400D49A1F8FE033046F8BD68
:10ECB0002E2E5C736F757263655C6273705F647235
:10ECC000697665725C7372635C686333326634368E
:10ECD000785F636C6B2E6300FE4305400040054087
:10ECE00070B5044600250026002C7CD000BF2068AB
:10ECF000022803D32068102800D804E040F21D3118
:10ED000054A000F0DFFC00BF00BF6068012803D3FF
:10ED10006068102800D804E040F21E314DA000F0D9
:10ED2000D1FC00BF00BFA068022803D3A068102850
:10ED300000D804E040F21F3146A000F0C3FC00BF41
:10ED400000BFE068142804D3E068B0F5F07F00D875
:10ED500004E04FF448713FA000F0B4FC00BF00BFD6
:10ED60002069012803D32069182800D804E040F264
:10ED7000213138A000F0A6FC00BF40480068C0F375
:10ED8000C01008B93E4801E03E4800682169B0FB68
:10ED9000F1F5E06800FB05F600BF3B48854203D370
:10EDA0003A48854200D804E04FF44A7129A000F0A7
:10EDB00089FC00BF00BF3648864203D3400086422C
:10EDC00000D804E040F2293122A000F07BFC00BF13
:10EDD000304800884AF2015108432E4908802078C3
:10EDE000401E2D4900E034E0D1F8001160F31F719E
:10EDF000224801602079401E2749D1F8001160F3B4
:10EE00001B611E480160207A401E2349D1F8001181
:10EE100060F3175119480160A089401E1E49D1F8BE
:10EE2000001160F3102115480160207C401E1A4932
:10EE3000D1F8001160F304011748C0F80011B0F8D0
:10EE4000FE034FF6FE71084040F425401249A1F838
:10EE5000FE0370BD2E2E5C736F757263655C62730A
:10EE6000705F6472697665725C7372635C68633349
:10EE700032663436785F636C6B2E63000041054068
:10EE8000001BB700E4A6FF1F40420F0000366E01D2
:10EE9000001C4E0EFE4305400040054010B50446E0
:10EEA00000BF0CB1012C00D104E040F2FE210FA004
:10EEB00000F008FC00BF174800884AF201510843DF
:10EEC0001549A1F8FE030846D0F8000164F3C71005
:10EED000C1F800010846B0F8FE034FF6FE71084085
:10EEE00040F425400C49A1F8FE0310BD2E2E5C73A2
:10EEF0006F757263655C6273705F64726976657268
:10EF00005C7372635C68633332663436785F636C5B
:10EF10006B2E6300FE4305400040054010B586B0EF
:10EF2000044600200590394800680490374840683E
:10EF300003903648806802903448C068019000BF52
:10EF40001CB1012C02DB052C00DC04E040F2DF31B7
:10EF50002FA000F0B7FB00BF37482C4908613748A5
:10EF6000007800F00700052801D0052C0ED13448A8
:10EF700026490860C01248608860C86000BF0598D4
:10EF8000401C05900598B0F5007FF8D32D48008807
:10EF90004AF20151084329492639A1F8FE030846DF
:10EFA00090F8260064F3020081F826000846B0F8C5
:10EFB000FE034FF6FE71084040F425401F492639F4
:10EFC000A1F8FE030020059000BF0598401C0590A5
:10EFD0000598B0F5007FF8D30C49049808600398B1
:10EFE0004860029888600198C8601348401E086114
:10EFF0000020059000BF0598401C05900598B0F5CD
:10F00000007FF8D304F048FB06B010BD0080044038
:10F010002E2E5C736F757263655C6273705F6472D1
:10F02000697665725C7372635C686333326634362A
:10F03000785F636C6B2E63000100A5A52640054038
:10F04000EEFAFFFFFE43054010B586B004460020EF
:10F050000590594800680490574840680390564806
:10F06000806802905448C068019054485249086131
:10F07000002C7DD000BF2078E178884232DC2078F7
:10F08000617988422EDC2078A17988422ADCA07838
:10F09000E178884226DCA0786179884222DC2079F8
:10F0A000A179401A03281CD02079A179401A02289E
:10F0B00017D02079A179401A012812D02079A1799E
:10F0C000401A0ED0A0792179401A012809D0A079E0
:10F0D0002179401A022804D0A0792179401A032806
:10F0E00000D104E040F23E4135A000F0EBFA00BF51
:10F0F0003D48007800F0070005280ED13B482E4916
:10F100000860C01248608860C86000BF0598401C55
:10F1100005900598B0F5007FF8D3354800884AF28D
:10F120000151084332490880A078E17840EA011093
:10F13000217940EA0120617940EA0130A17940EA71
:10F140000140617840EA0150217840EA016040EADC
:10F150000170254926390862254800884FF6FE715E
:10F16000084040F4254020492639A1F8FE0300E07C
:10F170001FE00020059000BF0598401C05900598F1
:10F18000B0F5007FF8D30C490498086003984860F4
:10F19000029888600198C8600848401E08610020F5
:10F1A000059000BF0598401C05900598B0F5007FBC
:10F1B000F8D306B010BD0000008004400100A5A5F2
:10F1C0002E2E5C736F757263655C6273705F647220
:10F1D000697665725C7372635C6863333266343679
:10F1E000785F636C6B2E630026400540EEFAFFFFEC
:10F1F000FE43054038B5044600200090002500BFBE
:10F200000CB1012C00D104E04FF4FE711DA000F000
:10F2100059FA00BF254800884AF2015108432449A1
:10F22000A1F8FE0394B922482630007800F00700C8
:10F23000042801D1012518E01C482230007820F074
:10F240000100401C1949223108700EE01748223095
:10F25000007820F0010015492231087000BF0098A5
:10F26000401C009000980528F9D3104800884FF6FC
:10F27000FE71084040F425400D49A1F8FE032846E0
:10F2800038BD00002E2E5C736F757263655C62730F
:10F29000705F6472697665725C7372635C68633315
:10F2A00032663436785F636C6B2E6300FE43054034
:10F2B00000400540F8B5044600200090002600BF3D
:10F2C0000CB1012C00D104E040F2A31131A000F0F8
:10F2D000F9F900BF00BF0CB1012C00D104E040F2ED
:10F2E000A5112CA000F0EEF900BF344800884AF2C6
:10F2F000015108433249A1F8FE034CBB3048263087
:10F30000007800F00700032801D1012636E02D48DF
:10F310000068C0F3C01088B929482A30007800F08E
:10F32000010008B9012629E025483230007820F094
:10F330000100401C224981F832001FE02048323091
:10F34000007820F00100401C1D4981F8320015E0D2
:10F350001B483230007820F00100194981F8320052
:10F3600000BF0120FFF776FB05460098401C009087
:10F370000098B0F5805F01D2012DF2D10F480088CE
:10F380004FF6FE71084040F425400D49A1F8FE03F8
:10F390003046F8BD2E2E5C736F757263655C6273C8
:10F3A000705F6472697665725C7372635C68633304
:10F3B00032663436785F636C6B2E6300FE43054023
:10F3C000004005400041054058B3164909884AF2FB
:10F3D00001521143134A11800278124912310978FF
:10F3E00062F3C7110F4A1232117042780D4912317F
:10F3F000097862F386110B4A12321170827809493A
:10F400001231097862F30511064A1232117005496A
:10F4100009884FF6FE72114041F42541024AA2F8D4
:10F42000FE137047FE4305400040054038B50446D2
:10F430000D4600200090062222494FF4106005F08E
:10F4400071FE204800781F49497808431D49897892
:10F4500008431C49C97808431A49097908431949DE
:10F460004979084378B90020164908700820487087
:10F47000DC2088700020C8700871487106224FF4A3
:10F48000106005F0A7FE1048047010480560104891
:10F4900010490860042269464FF4706005F09AFE36
:10F4A000042269464FF4706005F094FE0422694618
:10F4B000900105F08FFE0AF0D1FB0020064908708C
:10F4C00038BD0000089DFF1FD09CFF1FFC9CFF1F44
:10F4D00078563412F89CFF1FE99CFF1F70B56948ED
:10F4E0000078062801D1052070BD67490978890098
:10F4F000491C4FF4407202EBC10005F0EDFD2228DB
:10F5000006D00023442202215F4800780CF02EF838
:10F51000012509F0C1FCC4B25A4890F90000052841
:10F5200077D2DFE800F0030F2C4F77000020574917
:10F53000087048708870C8700BF046FC0120514973
:10F5400008709CE0022C16D151480068007C4F499D
:10F5500008704F480068407C48704D480068807CC7
:10F5600088704B480068C07CC8700BF03FFD0220DB
:10F570004449087002E006F025FD05467FE0052CB1
:10F5800014D106F0E3FC40B14248006880470AF01D
:10F5900065FB03203B49087013E00AF05FFB3E481F
:10F5A000006880470020374908700AE0062C05D122
:10F5B0000AF054FB01203349087002E006F002FD16
:10F5C00005465CE0042535480068401C00B334481B
:10F5D000006832490968B0EB510F19D900242B4853
:10F5E000007830490870294840784870274880786A
:10F5F00088702648C078C8702B480068401C2A498B
:10F6000008600BF0F3FC0AF029FB04201D49087088
:10F6100035E033E00425052C24D10020234908706F
:10F620002048007819490978884211D11D4840784E
:10F630001649497888420BD11A488078134989784D
:10F64000884205D11748C0781049C978884203D04C
:10F6500003251748006880470AF000FB032009498A
:10F6600008700AE0062C05D10AF0F8FA01200549D5
:10F67000087002E006F0A6FC054600E000BF00BFEF
:10F68000284631E7E99CFF1FD09CFF1FD99CFF1F34
:10F69000FC9CFF1F109DFF1F189DFF1FEC9CFF1F70
:10F6A000F09CFF1FD59CFF1FF89CFF1FEA9CFF1FCB
:10F6B000149DFF1F02480068401C01490860704704
:10F6C000F09CFF1F04460D462A46214602A005F085
:10F6D000B3FD00BFFEE7000057726F6E67207061D8
:10F6E00072616D65746572732076616C75653A2020
:10F6F00066696C65202573206F6E206C696E6520CD
:10F7000025640D0A0000000010B5AFF3008010BDA5
:10F710000449486000BF03490968C1F3801100290A
:10F72000F9D070470010024001490860704700009E
:10F730001404014010B5044600BF0CB1012C00D1E7
:10F7400004E04FF4A57105A0FFF7BCFF00BF0D4812
:10F75000006864F300000B49086010BD2E2E5C7336
:10F760006F757263655C6273705F647269766572EF
:10F770005C7372635C68633332663436785F6566E7
:10F780006D2E63000C04014010B5044600BF0CB19F
:10F79000012C00D103E0DA2107A0FFF793FF00BF9F
:10F7A000012C01D0012100E000210D48006861F327
:10F7B00000000B49086010BD2E2E5C736F757263DC
:10F7C000655C6273705F6472697665725C737263A4
:10F7D0005C68633332663436785F65666D2E63002D
:10F7E0000404014010B5044600BF012C0CD0022CCB
:10F7F0000AD0042C08D0082C06D0102C04D0202CC1
:10F8000002D0B4F5807F00D104E04FF4DA7106A095
:10F81000FFF758FF00BF0E480068204008B10120E4
:10F8200010BD0020FCE700002E2E5C736F75726324
:10F83000655C6273705F6472697665725C73726333
:10F840005C68633332663436785F65666D2E6300BC
:10F850001004014004480068012804D143F210203C
:10F860000149086008607047000401402DE9F0413B
:10F8700004460026002700BF1CB11CB12448844266
:10F8800000D804E040F21B3122A0FFF71BFF00BFAD
:10F890003F20FFF749FF29480068C0F3004527488B
:10F8A000006820F48030254908600120FFF742FFFE
:10F8B0002248001D006820F0700040301F49091DDB
:10F8C00008601F48206005E0701C86B2B6F5805FB6
:10F8D00000D90927194808300068C0F30020002823
:10F8E000F2D01020FFF720FF1448001D006820F020
:10F8F00070001249091D08600020FFF71BFF0F4828
:10F90000006865F310400D4908603846BDE8F08195
:10F91000DFFF07002E2E5C736F757263655C627388
:10F92000705F6472697665725C7372635C6863337E
:10F9300032663436785F65666D2E630008040140D8
:10F940007856341210B5044600BFECB1012C1BD020
:10F95000022C19D0032C17D0042C15D0052C13D051
:10F96000062C11D0072C0FD0082C0DD0092C0BD051
:10F970000A2C09D00B2C07D00C2C05D00D2C03D051
:10F980000E2C01D00F2C00D103E0FB2105A0FFF7C6
:10F9900099FE00BF0D48006864F307100B4908602A
:10F9A00010BD00002E2E5C736F757263655C627310
:10F9B000705F6472697665725C7372635C686333EE
:10F9C00032663436785F65666D2E63000804014048
:10F9D0002DE9F04104460D464FF00008002700BF16
:10F9E0001CB11CB12748844200D804E040F23A21FF
:10F9F00025A0FFF767FE00BF3F20FFF795FE2C48CC
:10FA00000068C0F300462A48006820F48030284986
:10FA100008600120FFF78EFE2548001D006820F0D9
:10FA2000700010302249091D0860256006E0781C2E
:10FA300087B2B7F5805F01D94FF009081C4808303C
:10FA40000068C0F300200028F1D02068A84201D04F
:10FA50004FF001081020FFF767FE1548001D0068F1
:10FA600020F070001249091D08600020FFF762FEB7
:10FA70000F48006866F310400D4908604046BDE835
:10FA8000F0810000DFFF07002E2E5C736F7572633C
:10FA9000655C6273705F6472697665725C737263D1
:10FAA0005C68633332663436785F65666D2E63005A
:10FAB0000804014040F223100249086043F210207C
:10FAC000086070470004014010B5AFF3008010BD1E
:10FAD00010B50348006810B101490868804710BD9F
:10FAE000C02A012010B50348406810B10149486898
:10FAF000804710BDC02A012010B50348806810B1AE
:10FB000001498868804710BDC02A012010B503480C
:10FB1000C06810B10149C868804710BDC02A0120E3
:10FB200010B50348006910B101490869804710BD4C
:10FB3000C02A012010B50348406910B10149486945
:10FB4000804710BDC02A012010B50348806910B15C
:10FB500001498869804710BDC02A012010B50348BB
:10FB6000C06910B10149C869804710BDC02A012091
:10FB700010B50348006A10B10149086A804710BDFA
:10FB8000C02A012010B50348406A10B10149486AF3
:10FB9000804710BDC02A012010B50348806A10B10B
:10FBA0000149886A804710BDC02A012010B503486A
:10FBB000C06A10B10149C86A804710BDC02A01203F
:10FBC00010B50348006B10B10149086B804710BDA8
:10FBD000C02A012010B50348406B10B10149486BA1
:10FBE000804710BDC02A012010B50348806B10B1BA
:10FBF0000149886B804710BDC02A012010B5034819
:10FC0000C06B10B10149C86B804710BDC02A0120EC
:10FC100010B50348006C10B10149086C804710BD55
:10FC2000C02A012010B50348406C10B10149486C4E
:10FC3000804710BDC02A012010B50348806C10B168
:10FC40000149886C804710BDC02A012010B50348C7
:10FC5000C06C10B10149C86C804710BDC02A01209A
:10FC600010B50348006D10B10149086D804710BD03
:10FC7000C02A012010B50348406D10B10149486DFC
:10FC8000804710BDC02A012010B50348806D10B117
:10FC90000149886D804710BDC02A012010B5034876
:10FCA000C06D10B10149C86D804710BDC02A012048
:10FCB00010B50348006E10B10149086E804710BDB1
:10FCC000C02A012010B50348406E10B10149486EAA
:10FCD000804710BDC02A012010B50348806E10B1C6
:10FCE0000149886E804710BDC02A012010B5034825
:10FCF000C06E10B10149C86E804710BDC02A0120F6
:10FD000010B50348006F10B10149086F804710BD5E
:10FD1000C02A012010B50348406F10B10149486F57
:10FD2000804710BDC02A012010B50348806F10B174
:10FD30000149886F804710BDC02A012010B50348D3
:10FD4000C06F10B10149C86F804710BDC02A0120A3
:10FD500010B50448D0F8800018B10249D1F88000ED
:10FD6000804710BDC02A012010B50448D0F8840097
:10FD700018B10249D1F88400804710BDC02A012083
:10FD800010B50448D0F8880018B10249D1F88800AD
:10FD9000804710BDC02A012010B50448D0F88C005F
:10FDA00018B10249D1F88C00804710BDC02A01204B
:10FDB00010B50448D0F8900018B10249D1F890006D
:10FDC000804710BDC02A012010B50448D0F8940027
:10FDD00018B10249D1F89400804710BDC02A012013
:10FDE00010B50448D0F8980018B10249D1F898002D
:10FDF000804710BDC02A012010B50448D0F89C00EF
:10FE000018B10249D1F89C00804710BDC02A0120DA
:10FE100010B50448D0F8A00018B10249D1F8A000EC
:10FE2000804710BDC02A012010B50448D0F8A400B6
:10FE300018B10249D1F8A400804710BDC02A0120A2
:10FE400010B50448D0F8A80018B10249D1F8A800AC
:10FE5000804710BDC02A012010B50448D0F8AC007E
:10FE600018B10249D1F8AC00804710BDC02A01206A
:10FE700010B50448D0F8B00018B10249D1F8B0006C
:10FE8000804710BDC02A012010B50448D0F8B40046
:10FE900018B10249D1F8B400804710BDC02A012032
:10FEA00010B50448D0F8B80018B10249D1F8B8002C
:10FEB000804710BDC02A012010B50448D0F8BC000E
:10FEC00018B10249D1F8BC00804710BDC02A0120FA
:10FED00010B50448D0F8C00018B10249D1F8C000EC
:10FEE000804710BDC02A012010B50448D0F8C400D6
:10FEF00018B10249D1F8C400804710BDC02A0120C2
:10FF000010B50448D0F8C80018B10249D1F8C800AB
:10FF1000804710BDC02A012010B50448D0F8CC009D
:10FF200018B10249D1F8CC00804710BDC02A012089
:10FF300010B50448D0F8D00018B10249D1F8D0006B
:10FF4000804710BDC02A012010B50448D0F8D40065
:10FF500018B10249D1F8D400804710BDC02A012051
:10FF600010B50448D0F8D80018B10249D1F8D8002B
:10FF7000804710BDC02A012010B50448D0F8DC002D
:10FF800018B10249D1F8DC00804710BDC02A012019
:10FF900010B50448D0F8E00018B10249D1F8E000EB
:10FFA000804710BDC02A012010B50448D0F8E400F5
:10FFB00018B10249D1F8E400804710BDC02A0120E1
:10FFC00010B50448D0F8E80018B10249D1F8E800AB
:10FFD000804710BDC02A012010B50448D0F8EC00BD
:10FFE00018B10249D1F8EC00804710BDC02A0120A9
:10FFF00010B50448D0F8F00018B10249D1F8F0006B
:020000040001F9
:10000000804710BDC02A012010B50448D0F8F40084
:1000100018B10249D1F8F400804710BDC02A012070
:1000200010B50448D0F8F80018B10249D1F8F8002A
:10003000804710BDC02A012010B50448D0F8FC004C
:1000400018B10249D1F8FC00804710BDC02A012038
:1000500010B50448D0F8000118B10249D1F80001E8
:10006000804710BDC02A012010B50448D0F8040113
:1000700018B10249D1F80401804710BDC02A0120FF
:1000800010B50448D0F8080118B10249D1F80801A8
:10009000804710BDC02A012010B50448D0F80C01DB
:1000A00018B10249D1F80C01804710BDC02A0120C7
:1000B00010B50448D0F8100118B10249D1F8100168
:1000C000804710BDC02A012010B50448D0F81401A3
:1000D00018B10249D1F81401804710BDC02A01208F
:1000E00010B50448D0F8180118B10249D1F8180128
:1000F000804710BDC02A012010B50448D0F81C016B
:1001000018B10249D1F81C01804710BDC02A012056
:1001100010B50448D0F8200118B10249D1F82001E7
:10012000804710BDC02A012010B50448D0F8240132
:1001300018B10249D1F82401804710BDC02A01201E
:1001400010B50448D0F8280118B10249D1F82801A7
:10015000804710BDC02A012010B50448D0F82C01FA
:1001600018B10249D1F82C01804710BDC02A0120E6
:1001700010B50448D0F8300118B10249D1F8300167
:10018000804710BDC02A012010B50448D0F83401C2
:1001900018B10249D1F83401804710BDC02A0120AE
:1001A00010B50448D0F8380118B10249D1F8380127
:1001B000804710BDC02A012010B50448D0F83C018A
:1001C00018B10249D1F83C01804710BDC02A012076
:1001D00010B50448D0F8400118B10249D1F84001E7
:1001E000804710BDC02A012010B50448D0F8440152
:1001F00018B10249D1F84401804710BDC02A01203E
:1002000010B50448D0F8480118B10249D1F84801A6
:10021000804710BDC02A012010B50448D0F84C0119
:1002200018B10249D1F84C01804710BDC02A012005
:1002300010B50448D0F8500118B10249D1F8500166
:10024000804710BDC02A012010B50448D0F85401E1
:1002500018B10249D1F85401804710BDC02A0120CD
:1002600010B50448D0F8580118B10249D1F8580126
:10027000804710BDC02A012010B50448D0F85C01A9
:1002800018B10249D1F85C01804710BDC02A012095
:1002900010B50448D0F8600118B10249D1F86001E6
:1002A000804710BDC02A012010B50448D0F8640171
:1002B00018B10249D1F86401804710BDC02A01205D
:1002C00010B50448D0F8680118B10249D1F86801A6
:1002D000804710BDC02A012010B50448D0F86C0139
:1002E00018B10249D1F86C01804710BDC02A012025
:1002F00010B50448D0F8700118B10249D1F8700166
:10030000804710BDC02A012010B50448D0F8740100
:1003100018B10249D1F87401804710BDC02A0120EC
:1003200010B50448D0F8780118B10249D1F8780125
:10033000804710BDC02A012010B50448D0F87C01C8
:1003400018B10249D1F87C01804710BDC02A0120B4
:1003500010B50448D0F8800118B10249D1F88001E5
:10036000804710BDC02A012010B50448D0F8840190
:1003700018B10249D1F88401804710BDC02A01207C
:1003800010B50448D0F8880118B10249D1F88801A5
:10039000804710BDC02A012010B50448D0F88C0158
:1003A00018B10249D1F88C01804710BDC02A012044
:1003B00010B50448D0F8900118B10249D1F8900165
:1003C000804710BDC02A012010B50448D0F8940120
:1003D00018B10249D1F89401804710BDC02A01200C
:1003E00010B50448D0F8980118B10249D1F8980125
:1003F000804710BDC02A012010B50448D0F89C01E8
:1004000018B10249D1F89C01804710BDC02A0120D3
:1004100010B50448D0F8A00118B10249D1F8A001E4
:10042000804710BDC02A012010B50448D0F8A401AF
:1004300018B10249D1F8A401804710BDC02A01209B
:1004400010B50448D0F8A80118B10249D1F8A801A4
:10045000804710BDC02A012010B50448D0F8AC0177
:1004600018B10249D1F8AC01804710BDC02A012063
:1004700010B50448D0F8B00118B10249D1F8B00164
:10048000804710BDC02A012010B50448D0F8B4013F
:1004900018B10249D1F8B401804710BDC02A01202B
:1004A00010B50448D0F8B80118B10249D1F8B80124
:1004B000804710BDC02A012010B50448D0F8BC0107
:1004C00018B10249D1F8BC01804710BDC02A0120F3
:1004D00010B50448D0F8C00118B10249D1F8C001E4
:1004E000804710BDC02A012010B50448D0F8C401CF
:1004F00018B10249D1F8C401804710BDC02A0120BB
:1005000010B50448D0F8C80118B10249D1F8C801A3
:10051000804710BDC02A012010B50448D0F8CC0196
:1005200018B10249D1F8CC01804710BDC02A012082
:1005300010B50448D0F8D00118B10249D1F8D00163
:10054000804710BDC02A012010B50448D0F8D4015E
:1005500018B10249D1F8D401804710BDC02A01204A
:1005600010B50448D0F8D80118B10249D1F8D80123
:10057000804710BDC02A012010B50448D0F8DC0126
:1005800018B10249D1F8DC01804710BDC02A012012
:1005900010B50448D0F8E00118B10249D1F8E001E3
:1005A000804710BDC02A012010B50448D0F8E401EE
:1005B00018B10249D1F8E401804710BDC02A0120DA
:1005C00010B50448D0F8E80118B10249D1F8E801A3
:1005D000804710BDC02A012010B50448D0F8EC01B6
:1005E00018B10249D1F8EC01804710BDC02A0120A2
:1005F00010B50448D0F8F00118B10249D1F8F00163
:10060000804710BDC02A012010B50448D0F8F4017D
:1006100018B10249D1F8F401804710BDC02A012069
:1006200010B50448D0F8F80118B10249D1F8F80122
:10063000804710BDC02A012010B50448D0F8FC0145
:1006400018B10249D1F8FC01804710BDC02A012031
:1006500010B55148046851480068012804D104F0DD
:10066000010008B1AFF300804C48001D006801286C
:1006700004D104F0020008B1AFF30080474808300D
:100680000068012804D104F0040008B1AFF3008031
:1006900042480C300068012804D104F0080008B179
:1006A000AFF300803D4810300068012804D104F009
:1006B000100008B1AFF300803848143000680128FA
:1006C00004D104F0200008B1AFF3008033481830A3
:1006D0000068012804D104F0400008B1AFF30080A5
:1006E0002E481C300068012804D104F0800008B1B5
:1006F000AFF30080294820300068012804D104F4B9
:10070000807008B1AFF300802448243000680128CD
:1007100004D104F4007008B1AFF300801F48283002
:100720000068012804D104F4806008B1AFF30080B0
:100730001A482C300068012804D104F4006008B184
:10074000AFF30080154830300068012804D104F46C
:10075000805008B1AFF300801048343000680128A1
:1007600004D104F4005008B1AFF300800B483830D6
:100770000068012804D104F4804008B1AFF3008080
:1007800006483C300068012804D104F4004008B158
:10079000AFF3008010BD00005C120540800AA24249
:1007A00070B5FE48046800260025FD480068012851
:1007B0002BD1FC48006840B9FB480068012804D1EF
:1007C00004F0010008B1AFF30080F6484030006843
:1007D00048B9F54840300068012804D104F480701D
:1007E00008B1AFF30080F148406800F00116EF480F
:1007F000C1684FF0011020EA010506EA050020B1AA
:1008000004F4803008B1AFF30080E94800680128A3
:100810002DD1E448001D006848B9E348001D006878
:10082000012804D104F0020008B1AFF30080DD48D4
:100830004430006848B9DC4844300068012804D1DD
:1008400004F4007008B1AFF30080D848406800F0AD
:100850000216D648C1684FF0021020EA010506EAE8
:10086000050020B104F4803008B1AFF30080D14816
:10087000006801282DD1CB480830006848B9CA4823
:1008800008300068012804D104F0040008B1AFF377
:100890000080C4484830006848B9C3484830006800
:1008A000012804D104F4806008B1AFF30080BF4890
:1008B000406800F00416BD48C1684FF0041020EAFB
:1008C000010506EA050020B104F4803008B1AFF359
:1008D0000080B948006801282DD1B2480C3000686A
:1008E00048B9B1480C300068012804D104F0080070
:1008F00008B1AFF30080AB484C30006848B9AA4853
:100900004C300068012804D104F4006008B1AFF352
:100910000080A648406800F00816A448C1684FF05F
:10092000081020EA010506EA050020B104F4803031
:1009300008B1AFF30080A148006801282CD1A0487D
:10094000006840B99F480068012804D104F01000F5
:1009500008B1AFF300809A484030006848B9994820
:1009600040300068012804D104F4805008B1AFF38E
:1009700000809548006800F001169348083001682F
:100980004FF0011020EA010506EA050020B104F449
:10099000003008B1AFF300808C48006801282ED1E8
:1009A0008748001D006848B98648001D0068012876
:1009B00004D104F0200008B1AFF300808048443037
:1009C000006848B9784844300068012804D104F42C
:1009D000005008B1AFF300807B48006800F00216B9
:1009E0007948083001684FF0021020EA010506EA54
:1009F000050020B104F4003008B1AFF30080744862
:100A0000006801282ED16E480830006848B96D484A
:100A100008300068012804D104F0400008B1AFF3A9
:100A2000008067484830006848B95F48483000682F
:100A3000012804D104F4804008B1AFF3008062487B
:100A4000006800F004166048083001684FF0041098
:100A500020EA010506EA050020B104F4003008B1DF
:100A6000AFF300805B48006801282ED154480C3059
:100A7000006848B953480C300068012804D104F0DC
:100A8000800008B1AFF300804D484C30006848B991
:100A900045484C300068012804D104F4004008B1F6
:100AA000AFF300804848006800F008164648083058
:100AB00001684FF0081020EA010506EA050020B1A0
:100AC00004F4003008B1AFF3008043480068012807
:100AD00009D14248006800F00F0020B104F48020E2
:100AE00008B1AFF300803C4808300068012809D104
:100AF0003948EC380068012804D104F4002008B11A
:100B0000AFF300803448001D0068012809D1324845
:100B1000F0380068012804D104F4801008B1AFF364
:100B200000804FF01C40C068C0F3C01020B104F436
:100B3000800008B1AFF3008029488669456806EA5D
:100B4000050000F07F0020B104F4000008B1AFF30D
:100B500000802448066823481438056806EA050022
:100B600000F07F0020B104F0807008B1AFF3008086
:100B70001D4806681C481438056806EA050000F0A0
:100B80007F0020B104F0007008B1AFF30080174877
:100B900006681648143805682AE00000601205400F
:100BA000B00BA6420002A6420001A642003005405A
:100BB000B013A642B01BA642B023A642B08BA642F9
:100BC0000082A6420081A64204340540B093A642AA
:100BD000B09BA642B0A3A64200832042100401406D
:100BE000002005401824054018280540182C054011
:100BF00006EA050000F07F0020B104F0806008B133
:100C0000AFF3008070BD000010B52F4804682F4876
:100C1000D0F80802012808D12D480068012804D125
:100C200004F0010008B1AFF30080294838380068AB
:100C3000012809D1264840300068012804D104F079
:100C4000020008B1AFF3008022480068012809D1F2
:100C5000204878300068012804D104F0040008B16D
:100C6000AFF300801B4840300068012809D11948C3
:100C7000B8300068012804D104F0080008B1AFF3CF
:100C8000008015480068012809D113482030006809
:100C9000012804D104F4001008B1AFF300800F481C
:100CA000006B012804D104F4800008B1AFF3008088
:100CB0000B48006800F4403020B104F4000008B193
:100CC000AFF3008010BD00006412054000004842F0
:100CD00080024842088248420008A84200809842A8
:100CE0000494044070B5AA48046800260025A94869
:100CF0000068012808D1A8480068012804D104F040
:100D0000010008B1AFF30080A248001D006801286F
:100D100009D1A148001D0068012804D104F0020097
:100D200008B1AFF300809B4808300068012809D162
:100D3000994808300068012804D104F0040008B183
:100D4000AFF3008093480C300068012809D1924825
:100D50000C300068012804D104F0080008B1AFF39A
:100D600000808C4810300068012809D18A48103072
:100D70000068012804D104F0100008B1AFF300802E
:100D8000844814300068012809D183481430006871
:100D9000012804D104F0200008B1AFF300807D48A1
:100DA00018300068012809D17B48183000680128F4
:100DB00004D104F0400008B1AFF3008075481C3046
:100DC0000068012809D174481C300068012804D14A
:100DD00004F0800008B1AFF300806E482030006856
:100DE000012809D16C4820300068012804D104F49E
:100DF000807008B1AFF300806848406D00F4403067
:100E0000C6096648006F00F4C06506EA050020B117
:100E100004F4006008B1AFF300806048406D00F456
:100E20004020C6095D48006F00F4C05506EA050081
:100E300020B104F4805008B1AFF300805848006836
:100E4000012808D157480068012804D104F48030F3
:100E500008B1AFF300805248001D0068012809D195
:100E60005048001D0068012804D104F4003008B186
:100E7000AFF300804A4808300068012809D149488A
:100E800008300068012804D104F4802008B1AFF3D1
:100E9000008043480C300068012809D141480C30DB
:100EA0000068012804D104F4002008B1AFF30080E9
:100EB0003B4810300068012809D13A4810300068DA
:100EC000012804D104F4801008B1AFF30080344845
:100ED00014300068012809D1324814300068012814
:100EE00004D104F4001008B1AFF300802C4818308E
:100EF0000068012809D12B4818300068012804D166
:100F000004F4800008B1AFF3008025481C3000686D
:100F1000012809D123481C300068012804D104F4B9
:100F2000000008B1AFF300801D48203000680128A0
:100F300009D11C4820300068012804D104F08070D9
:100F400008B1AFF300801848006800F44030C609CB
:100F500015481C30006800F4C06506EA050020B1A1
:100F600004F0006008B1AFF300800F48006800F49F
:100F70004020C6090C481C30006800F4C05506EA41
:100F8000050020B104F0805008B1AFF3008070BDBF
:100F900068120540800A3042000E30420080014055
:100FA000808A3042008E30425484014070B55748E8
:100FB00004680026002556480068012808D15548D5
:100FC0000068012804D104F0010008B1AFF30080EB
:100FD0004F48001D0068012809D14E48001D0068D7
:100FE000012804D104F0020008B1AFF300804848A2
:100FF00008300068012809D14648083000680128F7
:1010000004D104F0040008B1AFF3008040480C3074
:101010000068012809D13F480C300068012804D13C
:1010200004F0080008B1AFF30080394810300068C0
:10103000012809D1374810300068012804D104F094
:10104000100008B1AFF30080314814300068012867
:1010500009D1304814300068012804D104F0200080
:1010600008B1AFF300802A4818300068012809D180
:10107000284818300068012804D104F0400008B165
:10108000AFF3008022481C300068012809D12148B4
:101090001C300068012804D104F0800008B1AFF3CF
:1010A00000801B4820300068012809D119482030F1
:1010B0000068012804D104F4807008B1AFF3008007
:1010C0001548006800F44030C60913481C30006819
:1010D00000F4C06506EA050020B104F4006008B120
:1010E000AFF300800C48006800F44020C6090A48AD
:1010F0001C30006800F4C05506EA050020B104F475
:10110000805008B1AFF3008070BD00006C12054044
:10111000800A3142000E31425488014070B50024EB
:101120000026BA480568BA48D0F8804004F48050D8
:1011300038B104F4804020B105F0010008B1AFF3EC
:10114000008004F4005038B104F4004020B105F0F0
:10115000020008B1AFF30080AD4890300468AC489D
:10116000D0F89C6004EA0600C0B220B105F004008B
:1011700008B1AFF30080A748046804F4805038B188
:1011800004F4804020B105F0080008B1AFF30080FE
:1011900004F4005038B104F4004020B105F0100010
:1011A00008B1AFF300809B481030046899481C30A8
:1011B000066804EA0600C0B220B105F0200008B1BC
:1011C000AFF300809448046804F4805038B104F40C
:1011D000804020B105F0400008B1AFF3008004F476
:1011E000005038B104F4004020B105F0800008B18F
:1011F000AFF3008088481030046887481C300668C8
:1012000004EA0600C0B220B105F4807008B1AFF363
:1012100000808248046804F4805038B104F48040AF
:1012200020B105F4007008B1AFF3008004F4005061
:1012300038B104F4004020B105F4806008B1AFF388
:10124000008076481030046874481C30066804EA50
:101250000600C0B220B105F4006008B1AFF3008011
:101260006F48046804F4805038B104F4804020B121
:1012700005F4805008B1AFF3008004F4005038B199
:1012800004F4004020B105F4005008B1AFF3008031
:1012900063481030046862488038D0F89C6004EAE3
:1012A0000600C0B220B105F4804008B1AFF3008061
:1012B0005C48046804F4805038B104F4804020B1E4
:1012C00005F4803008B1AFF3008004F4005038B169
:1012D00004F4004020B105F4003008B1AFF3008001
:1012E0005048103004684F481C30066804EA060075
:1012F000C0B220B105F4802008B1AFF300804A48A5
:101300000068012810D149488069494900EA010470
:101310004648406900EA010604EA060020B105F4E7
:10132000002008B1AFF3008042480468C66806F0A8
:10133000200038B104F00B0020B105F4800008B1A2
:10134000AFF3008006EA040000F0200020B105F4AD
:10135000000008B1AFF3008006EA040000F080004E
:1013600020B105F0807008B1AFF3008006EA0400F8
:1013700000F0400020B105F0007008B1AFF300802C
:1013800006F0020038B104F4807020B105F08060EE
:1013900008B1AFF300802848046827480C3006687D
:1013A00006F0200038B104F00B0020B105F0006019
:1013B00008B1AFF3008006EA040000F0200020B17D
:1013C00005F0805008B1AFF3008006EA040000F099
:1013D000800020B105F0005008B1AFF3008006EAAC
:1013E000040000F0400020B105F0804008B1AFF3E8
:1013F000008006F0020038B104F4807020B105F0DE
:10140000004008B1AFF3008070BD00007C120540C1
:10141000005001408054014080580140805C0140F0
:1014200080600140806401400001804300000C4066
:10143000FBFC7CF700D0014000D4014070B50024D3
:1014400000269948056899480468C66806F0200097
:1014500038B104F00B0020B105F0010008B1AFF382
:10146000008006EA040000F0200020B105F0020030
:1014700008B1AFF3008006EA040000F0800020B15C
:1014800005F0040008B1AFF3008006EA040000F0A4
:10149000400020B105F0080008B1AFF3008006F06D
:1014A000020038B104F4807020B105F0100008B1DA
:1014B000AFF300807E4804687D480C30066806F073
:1014C000200038B104F00B0020B105F0200008B175
:1014D000AFF3008006EA040000F0200020B105F020
:1014E000400008B1AFF3008006EA040000F080007D
:1014F00020B105F0800008B1AFF3008006EA0400D7
:1015000000F0400020B105F4807008B1AFF3008016
:1015100006F0020038B104F4807020B105F40070C8
:1015200008B1AFF3008063484468466904F4806002
:1015300038B106F0800020B105F4006008B1AFF3C7
:10154000008004F4007038B106F0200020B105F4EA
:10155000805008B1AFF3008004F4006038B106F0A9
:10156000020020B905F4005008B1AFF3008004F484
:10157000807038B106F01D0020B105F4804008B13C
:10158000AFF300804C4804684B481030066804F400
:10159000806038B106F0800020B105F4803008B1D9
:1015A000AFF3008004F4007038B106F0200020B1E1
:1015B00005F4003008B1AFF3008004F4006038B1E6
:1015C00006F0020020B905F4802008B1AFF30080D6
:1015D00004F4807038B106F01D0020B105F400203D
:1015E00008B1AFF3008035484468466904F4806070
:1015F00038B106F0800020B105F4001008B1AFF357
:10160000008004F4007038B106F0200020B105F429
:10161000800008B1AFF3008004F4006038B106F038
:10162000020020B905F4000008B1AFF3008004F413
:10163000807038B106F01D0020B105F0807008B14F
:10164000AFF300801E4804681D481030066804F49B
:10165000806038B106F0800020B105F0806008B1EC
:10166000AFF3008004F4007038B106F0200020B120
:1016700005F0006008B1AFF3008004F4006038B1F9
:1016800006F0020020B905F0805008B1AFF30080E9
:1016900004F4807038B106F01D0020B105F0005050
:1016A00008B1AFF3008070BD801205400010024009
:1016B0000014024000C0014004C401400000024088
:1016C0000404024070B500248A4805688A48048BE7
:1016D00005F0010038B104F0100020B104F0400022
:1016E00008B1AFF3008005F0020038B104F020002B
:1016F00020B104F0800008B1AFF300807E48848BF5
:1017000005F0040038B104F0100020B104F04000EE
:1017100008B1AFF3008005F0080038B104F02000F4
:1017200020B104F0800008B1AFF300807248048C4F
:1017300005F0100038B104F0100020B104F04000B2
:1017400008B1AFF3008005F0200038B104F02000AC
:1017500020B104F0800008B1AFF300806648483043
:10176000048805F0400038B104F4807020B104F41E
:10177000007008B1AFF3008005F0800038B104F4C8
:10178000005020B104F4804008B1AFF300805A4803
:10179000A430048805F4807040B104F00100C04317
:1017A00020B104F0100008B1AFF3008005F4007020
:1017B00040B104F00200C04320B104F4807008B1CD
:1017C000AFF3008005F4806040B104F00400C04332
:1017D00020B104F4805008B1AFF30080474804887A
:1017E00005F4803038B104F0100020B104F040005E
:1017F00008B1AFF3008005F4003038B104F02000E8
:1018000020B104F0800008B1AFF300803B48001D18
:10181000048805F4802038B104F0100020B104F0F1
:10182000400008B1AFF3008005F4002038B104F0A7
:10183000200020B104F0800008B1AFF300802F48F1
:101840000830048805F4801038B104F0100020B18D
:1018500004F0400008B1AFF3008005F4001038B187
:1018600004F0200020B104F0800008B1AFF3008044
:1018700022483030048805F4800038B104F48070C8
:1018800020B104F4007008B1AFF3008005F400004B
:1018900038B104F4005020B104F4804008B1AFF333
:1018A000008016488C30048805F0807040B104F048
:1018B0000100C04320B104F0100008B1AFF3008074
:1018C00005F0007040B104F00200C04320B104F400
:1018D000807008B1AFF3008005F0806040B104F083
:1018E0000400C04320B104F4805008B1AFF300807D
:1018F00070BD00008412054000700140184802408D
:1019000070B50024464805684648048805F0010083
:1019100038B104F0100020B104F0400008B1AFF37A
:10192000008005F0020038B104F0200020B104F07E
:10193000800008B1AFF300803A48001D048805F02C
:10194000040038B104F0100020B104F0400008B1E8
:10195000AFF3008005F0080038B104F0200020B19A
:1019600004F0800008B1AFF300802E4808300488EE
:1019700005F0100038B104F0100020B104F0400070
:1019800008B1AFF3008005F0200038B104F020006A
:1019900020B104F0800008B1AFF30080214830305E
:1019A000048805F0400038B104F4807020B104F4DC
:1019B000007008B1AFF3008005F0800038B104F486
:1019C000005020B104F4804008B1AFF30080154806
:1019D0008C30048805F4807040B104F00100C043ED
:1019E00020B104F0100008B1AFF3008005F40070DE
:1019F00040B104F00200C04320B104F4807008B18B
:101A0000AFF3008005F4806040B104F00400C043EF
:101A100020B104F4805008B1AFF3008070BD000025
:101A200088120540184C024070B57A4804680026B8
:101A300000257948006800F00F06774808300068F4
:101A400000F00F0506EA050020B104F0400008B1DF
:101A5000AFF3008070482030006800F00F066E4839
:101A60002830006800F00F0506EA050020B104F0F8
:101A7000800008B1AFF3008067484030006800F094
:101A80000F0665484830006800F00F0506EA0500BB
:101A900020B104F4807008B1AFF300805E4860307C
:101AA000006800F00F065C486830006800F00F0521
:101AB00006EA050020B104F4007008B1AFF300801D
:101AC00056484068012809D15448803000680128F0
:101AD00004D104F4803008B1AFF300804F48C068EF
:101AE000012809D14D4884300068012804D104F44C
:101AF000003008B1AFF3008048480069012809D1DF
:101B00004748806800F0030020B104F4802008B149
:101B1000AFF3008043484068012809D14148803034
:101B20000068012804D104F4002008B1AFF300805C
:101B30003C48C068012809D13A488430006801282F
:101B400004D104F4801008B1AFF300803548006977
:101B5000012809D13448006800F0030020B104F4E2
:101B6000001008B1AFF3008030484068012809D167
:101B70002E4880300068012804D104F4800008B1A8
:101B8000AFF300802948C068012809D12748843074
:101B90000068012804D104F4000008B1AFF300800C
:101BA00022480069012809D12148806800F003001B
:101BB00020B104F0807008B1AFF300801D48406888
:101BC000012809D11B4880300068012804D104F0A5
:101BD000007008B1AFF300801648C068012809D131
:101BE000144884300068012804D104F0806008B1F2
:101BF000AFF300800F480069012809D10E48006842
:101C000000F0030020B104F0006008B1AFF30080E1
:101C100070BD00008C1205400C7C014000003C426D
:101C200000E0014000803C4208E4014000004442E2
:101C300000200240008044420824024070B58748DA
:101C40000468002600258648D0F89800012808D1AD
:101C500084480068012804D104F0100008B1AFF3F3
:101C600000807F489C300068012809D17D48001D14
:101C70000068012804D104F0200008B1AFF300800F
:101C800077488C300068012809D176480C38006804
:101C9000012804D104F0400008B1AFF3008072487D
:101CA0004068724900EA01066F48C06900EA010510
:101CB00006EA050020B104F0800008B1AFF300800F
:101CC0006B480068012808D16A480068012804D1DF
:101CD00004F4807008B1AFF300806548001D00680F
:101CE000012809D16348001D0068012804D104F4CB
:101CF000007008B1AFF300805D480C38006801281F
:101D000009D15C480C380068012804D104F48060D3
:101D100008B1AFF3008058480068544900EA010652
:101D200055481830006800EA010506EA050020B1B0
:101D300004F4006008B1AFF3008050480068012847
:101D400008D14F480068012804D104F4805008B13C
:101D5000AFF300804948001D0068012809D14848B8
:101D6000001D0068012804D104F4005008B1AFF34D
:101D7000008042480C380068012809D140480C38DE
:101D80000068012804D104F4804008B1AFF300805A
:101D90003C480068354900EA01063A4818300068B6
:101DA00000EA010506EA050020B104F4004008B18C
:101DB000AFF3008034480068012808D13348006838
:101DC000012804D104F4003008B1AFF300802E489C
:101DD00010300068012809D12C4810300068012813
:101DE00004D104F4802008B1AFF3008028480068D3
:101DF000012809D1264880300068012804D104F464
:101E0000801008B1AFF300802148001D0068012850
:101E100009D11F4884300068012804D104F400105F
:101E200008B1AFF300801A4808300068012809D1D2
:101E3000174888300068012804D104F4800008B1F4
:101E4000AFF300801348406800F4403020B104F440
:101E5000000008B1AFF3008070BD00009012054093
:101E600000009C4298039C4200E004401752F0009E
:101E700098809C4298839C4204E4044098009D42D0
:101E800098039D4204E804406082A842241CA842B2
:101E9000008390420090044070B53C4804680025DF
:101EA0003B480068012809D13948203800680128DA
:101EB00004D104F0010008B1AFF300803448001DE4
:101EC0000068012809D132481C380068012804D173
:101ED00004F0020008B1AFF300802E4805882E48B8
:101EE0000068012809D12D480068012800D025B1DB
:101EF00004F0040008B1AFF300802748006801280F
:101F000009D126480068012800D025B104F0080056
:101F100008B1AFF3008022480068012809D12048A9
:101F200020380068012804D104F0100008B1AFF394
:101F300000801B48001D0068012809D118481C3882
:101F40000068012804D104F0200008B1AFF300803C
:101F500014480068012809D113480088C0F308001C
:101F600020B104F0400008B1AFF300800D480068D4
:101F7000012809D10C480088C0F3080020B104F002
:101F8000800008B1AFF3008070BD000094120540DE
:101F9000E0088042B0000440201480424016804295
:101FA000E088804220948042B00404402DE9F05F34
:101FB0000026B346002400250027A046A146A246DD
:101FC0003A48006801281AD139480788384808304B
:101FD000B0F80080801FB0F8009035480A30B0F8A3
:101FE00000A007EA080040F2F711084028B909EA02
:101FF0000A0040F27F11084008B1AFF300802B487F
:102000000C300068012815D12A48078EB0F83880B6
:10201000B0F83290B0F83AA007EA080040F2F711A1
:10202000084028B909EA0A0040F27F11084008B1C7
:10203000AFF300801D4810300068012834D11E48DD
:102040000678401E90F800B0801C04781A481A30B8
:10205000057805F0200028BB06F0010010BB06EA59
:102060000B0000F0FE00E8B904F0010010B104F02C
:102070000200B8B904F0040010B104F0080088B9F7
:1020800004F0100010B104F0200058B905F0080069
:1020900010B105F0100028B905F0400020B105F09E
:1020A000800008B1AFF30080BDE8F09F0853A24262
:1020B00030FC064000000740A504074010B5AFF310
:1020C000008010BD10B5AFF3008010BD70B50446A0
:1020D0000D4600BF1F2C00D804E04FF4C57113A0BB
:1020E000FDF7F0FA00BF00BF0DB1012D00D104E0F3
:1020F00040F28B110DA0FDF7E5FA00BF00F0FEFAEB
:10210000012D07D11448008804F01F01084312492B
:10211000088006E01048008804F01F0188430E493B
:10212000088000F08BF9002070BD00002E2E5C733B
:102130006F757263655C6273705F647269766572F5
:102140005C7372635C68633332663436785F6770E1
:10215000696F2E6300000000F43B054070B5054632
:102160000C4600BF4DB1012D07D0022D05D0032D27
:1021700003D0042D01D0052D00D104E040F2F71169
:102180001FA0FDF79FFA00BF00BF012C25D0022C35
:1021900023D0042C21D0082C1FD0102C1DD0202C93
:1021A0001BD0402C19D0802C17D0B4F5807F14D0D0
:1021B000B4F5007F11D0B4F5806F0ED0B4F5006F88
:1021C0000BD0B4F5805F08D0B4F5005F05D0B4F54E
:1021D000804F02D0B4F5004F00D104E04FF4FC7101
:1021E00007A0FDF76FFA00BF1048102101FB05069C
:1021F0003068204008B1012070BD0020FCE70000DD
:102200002E2E5C736F757263655C6273705F6472AF
:10221000697665725C7372635C6863333266343608
:10222000785F6770696F2E6300000000003805401A
:102230002DE9F047064689461446002700BF4EB1F7
:10224000012E07D0022E05D0032E03D0042E01D07C
:10225000052E00D104E040F213116CA0FDF732FA14
:1022600000BF00BF207828B12078012802D0207854
:10227000022800D104E040F2151164A0FDF722FA13
:1022800000BF00BF607928B16079012802D0607971
:10229000022800D104E04FF48B715CA0FDF712FA24
:1022A00000BF00BFA07910B1A079012800D104E0DF
:1022B00040F2171155A0FDF705FA00BF00BF607886
:1022C00010B16078012800D104E04FF48C714FA068
:1022D000FDF7F8F900BF00BFA07810B1A078012881
:1022E00000D104E040F2191148A0FDF7EBF900BF5E
:1022F00000BFE07810B1E078012800D104E04FF48D
:102300008D7142A0FDF7DEF900BF00BF207910B14A
:102310002079012800D104E040F21B113BA0FDF719
:10232000D1F900BF00BFE07910B1E079012800D1F8
:1023300004E04FF48E7135A0FDF7C4F900BF00F042
:10234000DDF900275AE00120B84000EA090078B31F
:10235000394800EB861000EB87053748801C00EBFE
:10236000861000EB87086178288861F38E3028801A
:10237000A178288861F30C302880E178288861F3FF
:10238000492028802179288861F386102880A17946
:10239000288861F3820028806179288861F305101C
:1023A0002880207828B101280CD002281BD113E006
:1023B00022E0288820F400402880288820F00200AD
:1023C000288011E0288820F400402880288820F008
:1023D0000200801C288007E0288820F4004000F5D7
:1023E0000040288000E000BF00BFE179B8F800009D
:1023F00061F30820A8F80000781CC7B2102FA2D300
:1024000000F01CF80020BDE8F08700002E2E5C7361
:102410006F757263655C6273705F64726976657212
:102420005C7372635C68633332663436785F6770FE
:10243000696F2E6300000000003C05404FF425400A
:102440000149088070470000FC3B054070B5044618
:102450000E4600BF4CB1012C07D0022C05D0032C36
:1024600003D0042C01D0052C00D104E040F27621E9
:1024700006A0FDF727F900BF0F48102101FB040556
:10248000288830432880002070BD00002E2E5C7309
:102490006F757263655C6273705F64726976657292
:1024A0005C7372635C68633332663436785F67707E
:1024B000696F2E63000000000A38054070B50446BD
:1024C0000E4600BF4CB1012C07D0022C05D0032CC6
:1024D00003D0042C01D0052C00D104E040F25E2191
:1024E00006A0FDF7EFF800BF0F48102101FB04051F
:1024F000288830432880002070BD00002E2E5C7399
:102500006F757263655C6273705F64726976657221
:102510005C7372635C68633332663436785F67700D
:10252000696F2E6300000000083805402DE9F04770
:102530000546894614461F464FF0000800BF4DB1BE
:10254000012D07D0022D05D0032D03D0042D01D07D
:10255000052D00D104E040F2CF215CA0FDF7B2F8D8
:1025600000BF00BF002C73D0012C71D070D06FD091
:102570006ED06DD0022C6BD0032C69D0042C67D0A8
:10258000052C65D0062C63D062D0072C60D05FD0BC
:102590005ED0082C5CD0092C5AD00A2C58D057D0C9
:1025A0000E2C55D00F2C53D0202C51D050D0212C94
:1025B0004ED04DD0222C4BD04AD0232C48D047D0DF
:1025C000242C45D044D0252C42D041D0262C3FD0BD
:1025D0003ED0272C3CD03BD0282C39D038D0292CC9
:1025E00036D035D02A2C33D032D02B2C30D02FD02F
:1025F0002C2C2DD02CD02D2C2AD029D02E2C27D0ED
:1026000026D02F2C24D023D0302C21D020D0312CF8
:102610001ED01DD0322C1BD01AD0332C18D017D07E
:10262000342C15D014D0352C12D011D0362C0FD01C
:102630000ED0372C0CD00BD0382C09D008D0392C28
:1026400006D005D03A2C03D002D03B2C00D000D1CC
:1026500004E04FF434711DA0FDF734F800BF00BF53
:102660000FB1012F00D104E040F2D12117A0FDF7F6
:1026700029F800BF00F042F84FF000081DE00120EB
:1026800000FA08F000EA090098B11B48402101FB5C
:102690000500042101FB0806308864F30500308042
:1026A000012F01D1012000E00020318860F30821D2
:1026B000318008F1010000F0FF08B8F1100FDED3FF
:1026C000FFF7BCFE0020BDE8F08700002E2E5C73F3
:1026D0006F757263655C6273705F64726976657250
:1026E0005C7372635C68633332663436785F67703C
:1026F000696F2E6300000000023C05404AF2015061
:102700000149088070470000FC3B054070B5044655
:102710000D4600BF1448204008B904B104E040F25F
:10272000BD2112A0FCF7CEFF00BF00BF0DB1012DEF
:1027300000D104E040F2BE210CA0FCF7C3FF00BFB3
:10274000144815490861012D04D108460068A043CA
:10275000086004E01048006820430F4908600D48F5
:10276000401E0D49086170BDEE3A0C702E2E5C7350
:102770006F757263655C6273705F647269766572AF
:102780005C7372635C68633332663436785F70778B
:10279000632E63000100A5A50080044070B50446C7
:1027A0000D4600BF1148204008B904B104E040F2D2
:1027B000F6210FA0FCF786FF00BF00BF0DB1012D71
:1027C00000D104E040F2F72109A0FCF77BFF00BF35
:1027D000012D05D110484068A0430F49486004E02E
:1027E0000D48406820430C49486070BD8602F0F0F7
:1027F0002E2E5C736F757263655C6273705F6472BA
:10280000697665725C7372635C6863333266343612
:10281000785F7077632E63000080044070B50446D3
:102820000D4600BF1148204008B904B104E040F251
:1028300027310FA0FCF746FF00BF00BF0DB1012DEF
:1028400000D104E04FF44A7109A0FCF73BFF00BF40
:10285000012D05D110488068A0430F49886004E02D
:102860000D48806820430C49886070BD0078F8FFEF
:102870002E2E5C736F757263655C6273705F647239
:10288000697665725C7372635C6863333266343692
:10289000785F7077632E63000080044010B50821D4
:1028A0000020FFF70BFE10BD10B508210020FFF738
:1028B000CDFD10BD70B504460D4604260E48844279
:1028C00008D00E48844205D00D48844202D00D48FD
:1028D00084420FD100BF0DB1012D00D104E040F2C0
:1028E000032109A0FCF7EEFE00BF606865F38610C7
:1028F00060600026304670BD00C0014000C4014049
:1029000000000240000402402E2E5C736F7572635B
:10291000655C6273705F6472697665725C73726322
:102920005C68633332663436785F7370692E630097
:1029300000B589B000BF1C2102A8FBF77FFD00BFD6
:1029400001214804FFF72AFF00232F220421184603
:10295000FFF7ECFD00232C2204210220FFF7E6FD07
:1029600000232D2208210220FFF7E0FD05208DF82D
:10297000160000208DF8190004208DF817000020A3
:102980008DF818008DF814008DF815008DF81300DF
:102990008DF81A008DF81B008DF81D008DF81E00B3
:1029A0008DF81F008DF820008DF8210001208DF892
:1029B0001C008DF8080000208DF8090001208DF81A
:1029C0000A0000208DF80B0001208DF80C00052076
:1029D0008DF80D0000208DF80E0000218DF80F10ED
:1029E00002A9154800F0A0F801211348FFF762FF83
:1029F00000BF00200090019000BF01208DF8000072
:102A00008DF802008DF804006A4608210020FFF7C7
:102A10000FFC00BF00200090019000BF01208DF846
:102A200000008DF802008DF804006A4601210220A2
:102A3000FFF7FEFB09B000BD00C40140012080F398
:102A4000108800BF7047002080F3108800BF7047D7
:102A500070B504460D4600262548844208D0254816
:102A6000844205D02448844202D0244884423CD188
:102A700000BF5DB1012D09D0022D07D0032D05D077
:102A8000042D03D0052D01D0062D00D104E040F225
:102A900026411BA0FCF716FE00BF072D23D2DFE85E
:102AA00005F004080C1014181E006069C0F3C0166D
:102AB0001AE06069C0F3401616E06069C0F30016C2
:102AC00012E06069C0F3C0060EE06069C0F38006E2
:102AD0000AE06069C0F3400080F0010604E060692C
:102AE00000F0010600E000BF00BF304670BD0000EE
:102AF00000C0014000C40140000002400004024048
:102B00002E2E5C736F757263655C6273705F6472A6
:102B1000697665725C7372635C68633332663436FF
:102B2000785F7370692E630070B505460C46042605
:102B3000FE48854208D0FE48854205D0FD488542C2
:102B400002D0FD4885427DD1002C7BD000BF20788B
:102B500010B12078012800D104E040F24711F7A01D
:102B6000FCF7B0FD00BF00BF6078A0B1607801281D
:102B700011D0607802280ED0607803280BD06078DE
:102B8000042808D06078052805D06078062802D08F
:102B90006078072800D104E04FF4A471E7A0FCF7A7
:102BA00091FD00BF00BFA07810B1A078012800D12E
:102BB00004E040F24911E1A0FCF784FD00BF00BF32
:102BC000E078A0B1E078012811D0E07802280ED09A
:102BD000E07803280BD0E078042808D0E0780528B6
:102BE00005D0E078062802D0E078072800D104E07C
:102BF0004FF4A571D1A0FCF765FD00BF00BF20799F
:102C000010B12079012800D104E040F24B11CBA093
:102C1000FCF758FD00BF00BF6079B0B160790128B2
:102C200013D06079022810D0607903280DD0607924
:102C300004280AD06079052807D06079062804D0D6
:102C4000607900E027E2072800D104E04FF4A67184
:102C5000BAA0FCF737FD00BF00BFA07940B1A07952
:102C6000012805D0A079022802D0A079032800D13C
:102C700004E040F24D11B1A0FCF724FD00BF00BFFD
:102C8000E07910B1E079012800D104E04FF4A77198
:102C9000AAA0FCF717FD00BF00BF207A10B1207A70
:102CA000012800D104E040F24F11A4A0FCF70AFD76
:102CB00000BF00BF607A10B1607A012800D104E043
:102CC0004FF4A8719DA0FCF7FDFC00BF00BFA07AE7
:102CD00010B1A07A012800D104E040F2511197A070
:102CE000FCF7F0FC00BF00BFE07A10B1E07A0128E9
:102CF00000D104E04FF4A97190A0FCF7E3FC00BF01
:102D000000BF207B10B1207B012800D104E040F2FD
:102D100053118AA0FCF7D6FC00BF00BF607B10B146
:102D2000607B012800D104E04FF4AA7183A0FCF776
:102D3000C9FC00BF00BFA07BA0B1A07B012811D0BF
:102D4000A07B02280ED0A07B03280BD0A07B0428F8
:102D500008D0A07B052805D0A07B062802D0A07B48
:102D6000072800D104E040F2551174A0FCF7AAFC3A
:102D700000BF00BFE07B60B3E07B012829D0E07B8F
:102D8000022826D0E07B032823D0E07B042820D033
:102D9000E07B05281DD0E07B06281AD0E07B0728C1
:102DA00017D0E07B082814D0E07B092811D0E07B05
:102DB0000A280ED0E07B0B280BD0E07B0C2808D033
:102DC000E07B0D2805D0E07B0E2802D0E07B0F28A9
:102DD00000D104E04FF4AB7158A0FCF773FC00BFC6
:102DE00000BF207C10B1207C012800D104E040F21B
:102DF000571152A0FCF766FC00BF00BF607C40B1D9
:102E0000607C012805D0607C022802D0607C032809
:102E100000D104E04FF4AC7148A0FCF753FC00BFB4
:102E200000BFA07C10B1A07C012800D104E040F2DA
:102E3000591142A0FCF746FC00BF00BFE07C10B176
:102E4000E07C012800D104E04FF4AD713BA0FCF719
:102E500039FC00BF00BF207D10B1207D012800D1CA
:102E600004E040F25B1135A0FCF72CFC00BF00BF72
:102E7000607D10B1607D012800D104E04FF4AE7197
:102E80002EA0FCF71FFC00BF00BFA07D10B1A07DED
:102E9000012800D104E040F25D1128A0FCF712FCEB
:102EA00000BF00BFE07D10B1E07D012800D104E04B
:102EB0004FF4AF7121A0FCF705FC00BF00BF207EDE
:102EC00010B1207E012800D104E040F25F111BA068
:102ED000FCF7F8FB00BF00BF607E10B1607E0128E8
:102EE00000D104E04FF4B07114A0FCF7EBFB00BF7D
:102EF000207D01283BD12178A86961F3CF30A861FA
:102F0000A178A86961F38E30A8612179A86961F37D
:102F10004D30A8616178E86861F31650E860E178A7
:102F2000E86861F31A60E86061791BE000C0014065
:102F300000C4014000000240000402402E2E5C73D9
:102F40006F757263655C6273705F647269766572D7
:102F50005C7372635C68633332663436785F7370B7
:102F6000692E6300E86861F31E70E86017E0A869E5
:102F700020F40040A861A86920F48040A861A869F5
:102F800020F40050A861E86820F4E000E860E868F8
:102F900020F0E060E860E86820F0E040E860A07CB5
:102FA000C8B9A179A86961F34710A861E179E86817
:102FB00061F30820E860217AE86861F34920E8605D
:102FC000617AE86861F38A20E860A17AE86861F3D1
:102FD000CB20E86013E0A86920F0E000A861E86871
:102FE00020F48070E860E86820F40070E860E86829
:102FF00020F48060E860E86820F40060E860E17A2E
:10300000E86861F38610E860617CE86861F30100BC
:10301000E860217CA86961F30C30A861E17BA869B4
:1030200061F30B20A861A17BA86961F38400A8610A
:10303000217BA86961F34100A861617BA86961F304
:103040000000A861A17C686861F300006860E17C11
:10305000686861F341006860217D686861F3C300BE
:103060006860617D686861F3C7106860A17D686809
:1030700061F30C306860E17D686861F34D30686031
:10308000217E686861F3CF306860617E686861F3B3
:103090008E3068600026304670BD000010B500BF5D
:1030A00001211148FFF7D4FC0028F9D033210E4844
:1030B00000F056F800BF00210B48FFF7C9FC0028BC
:1030C000F9D0094800F016F804460848017800785D
:1030D000401C064A1070142091FBF0F200FB121005
:1030E00003490C54204610BD00C40140419DFF1F00
:1030F000AC31002010B5044600BF0B48844208D014
:103100000A48844205D00A48844202D009488442D1
:1031100000D104E040F2792107A0FCF7D3FA00BF08
:103120002068C0B210BD000000C0014000C40140D2
:1031300000000240000402402E2E5C736F75726323
:10314000655C6273705F6472697665725C737263EA
:103150005C68633332663436785F7370692E63005F
:1031600002460420074B9A4208D0074B9A4205D0EA
:10317000064B9A4202D0064B9A4201D111600020C0
:103180007047000000C0014000C401400000024040
:103190000004024070B5044600BF01210A48FFF751
:1031A00057FC0028F9D021460748FFF7D9FF00BF98
:1031B00000210548FFF74CFC0028F9D00248FFF732
:1031C00099FF054670BD000000C401402DE9F04F95
:1031D0002DED028B83B004468A460026B14600BF1F
:1031E0009FED410AB0EE408A00254FF0FF3B0420DE
:1031F00002903E48844208D03D48844205D03D4874
:10320000844202D03C48844267D1204601F014FE3B
:103210000646002E61D0D14600EE109AB8EE400A64
:10322000F1EE000A60EE200A00EE106AB8EE400AE5
:1032300080EE201AB7EE000A31EE400AB0EE408A66
:10324000BCEEC80A10EE105AB5EEC08AF1EE10FAC4
:1032500043D3FF2D41D80020029000EE105AB8EE63
:10326000400A38EE400ADFED250AB4EEE00AF1EE3E
:1032700010FA1EDD6A1C40410021A2FB097300FB0D
:10328000093002FB01084FF480610022A7FB010313
:1032900008FB013107FB021132460023CDE9000192
:1032A000FBF782F8B0F1800BBBF17F0F01D904204E
:1032B0000290029888B9BBF17F0F01D8012100E08C
:1032C0000021E06861F35D70E060A0686BF30600C8
:1032D000A060A06865F30F20A060029803B0BDEC69
:1032E000028BBDE8F08F00000000000000D001401C
:1032F00000D401400010024000140240ACC5273742
:103300002DE9F04F2DED028B89B004468B46002647
:10331000B146B2469FED4F0AB0EE408A00BF00258D
:10332000681E07904C4B0FCB03AF0FC704200290D1
:103330004A48844208D04A48844205D049488442D9
:1033400002D0494884427FD1204601F075FD814674
:10335000B9F1000F78D05E466069C0F3425003A90E
:1033600031F810A000EE106AF8EE400A00EE10AA44
:10337000B8EE400A20EE800AF0EE000A60EE200A65
:1033800000EE109AB8EE401A81EE200AF7EE000A1D
:1033900030EE600AB0EE408ABCEEC80A10EE105A59
:1033A000B5EEC08AF1EE10FA4ED3FF2D4CD80020B6
:1033B000029000EE105AB8EE400A38EE400ADFEDF7
:1033C0002B0AB4EEE00AF1EE10FA27DD6A1C404148
:1033D0000023A2FB061C00FB06C002FB03021846EA
:1033E000A1FB0A7302FB0A3201FB00284FF40071B3
:1033F0000020A7FB012308FB013107FB0010CDE9EA
:1034000000204A460023DDE90001FAF7CDFF8038AD
:10341000079007987F2801D904200290029820B9CC
:1034200007987F2802D8012101E00DE00021E06823
:1034300061F35D70E0600798A16860F30601A16028
:10344000A06865F30F20A060029809B0BDEC028B64
:10345000BDE8F08F000000002CD1010000D0014039
:1034600000D401400010024000140240ACC52737D0
:103470002DE9F04F2DED028B85B004468B460026DA
:10348000B146B2469FED510AB0EE408A00BF00251A
:10349000681E0390042002904D48844208D04D4895
:1034A000844205D04C48844202D04C48844277D1B3
:1034B000204601F0C1FC8146B9F1000F7FD05E4685
:1034C000E068C0F3C03A00EE106AB8EE400AF2EECF
:1034D000000A60EE200A00EE10AAB8EE400AB0EE34
:1034E000001A31EE400A60EE800A00EE109AB8EE43
:1034F000401A81EE200AF7EE000A30EE600AB0EEC4
:10350000408ABCEEC80A10EE105AB5EEC08AF1EE41
:1035100010FA54D3FF2D52D80020029000EE105A1A
:10352000B8EE400A38EE400ADFED2D0AB4EEE00AAC
:10353000F1EE10FA2DDD0021DAF1020261EB01005B
:103540004FF0010C15EB0C0C41EB0103A2FB0C1E20
:1035500000FB0CE002FB03020020A1FB067302FB50
:10356000063201FB00284FF400610022A7FB010393
:1035700008FB013107FB02114A460023CDE9000197
:10358000FAF712FF8038039003987F2801D90420AE
:103590000290029820B903987F2802D8012101E007
:1035A0000DE00021E06861F35D70E0600398A168C0
:1035B00060F30601A160A06865F30F20A060029887
:1035C00005B0BDEC028BBDE8F08F000000000000EC
:1035D00000D0014000D4014000100240001402401D
:1035E000ACC5273710B500BF502080F31188BFF35A
:1035F0004F8FBFF36F8F00BF09F01AFC18B14FF067
:1036000080500449086000BF002080F3118800BF8B
:1036100010BD000004ED00E0F0B50146012481B3C7
:10362000B1F57A7F2DD84FF47A70B0FBF1F0164ADD
:10363000106016480068B0FBF1F2501EB0F1807FB8
:1036400001D301201BE0501E4FF0E02358615817B2
:103650000F23002804DB1D072E0E0D4D2E5406E00F
:103660001D072F0E0B4D00F00F06361FAF5500BF84
:1036700000204FF0E023986107201861002000B976
:1036800000242046F0BD0000ECA6FF1FE8A6FF1FA7
:1036900000E400E018ED00E070B5002413200121E3
:1036A00000220023304D2D6805F001051DB12F4D7E
:1036B0002F4E356002E02F4D2D4E35602E4D2D786A
:1036C00005F00704062C4CD2DFE804F003080C11C7
:1036D000151A274D2D68294E356042E0284D274E9A
:1036E00035603EE04FF40045244E356039E0254D0D
:1036F000224E356035E04FF40045204E356030E015
:103700001D4DDA352D68C5F3C0131B4D263DD5F888
:103710000051C5F30820184DDA352D68290F164DD4
:10372000263DD5F8005105F01F025BB9551C154E1A
:10373000B6FBF5F5461C75434E1CB5FBF6F50F4E72
:1037400035600DE0012B0BD1094D2E68551CB6FBE1
:10375000F5F5461C75434E1CB5FBF6F5074E356076
:1037600000BF00BF70BD0000840601400024F400CB
:10377000E4A6FF1F002D310126400540E8A6FF1FEB
:1037800000127A00001BB70000B54FF460400249F8
:103790000860FFF781FF00BD08ED00E02DE9F84368
:1037A00004460E4615464FF000080027002D70D045
:1037B00000BFFE48844202D0FD48844200D104E0AC
:1037C00040F2B121FBA0FBF77DFF00BF00BF0EB1AF
:1037D000012E00D104E040F2B221F6A0FBF772FF07
:1037E00000BF00BF2878E8B1287801281AD02878CF
:1037F000022817D02878032814D02878042811D05C
:10380000287805280ED0287806280BD02878072895
:1038100008D02878082805D02878092802D02878E8
:103820000A2800D104E040F2B321E2A0FBF74AFFEE
:1038300000BF00BF687810B16878012800D104E0AB
:103840004FF42D71DBA0FBF73DFF00BF00BFA87850
:1038500010B1A878012800D104E040F2B521D5A02C
:10386000FBF730FF00BF00BFE87810B1E87801280F
:1038700000D104E040F2B621CEA0FBF723FF00BF49
:10388000CA4884420CD15EB900BFE878012801D152
:1038900005E000E340F2BA21C6A0FBF713FF00BF2A
:1038A0002069009960F300010091206941080098A7
:1038B00061F34100009020698108009861F3820063
:1038C0000090207C8DF8000020690109009861F3C8
:1038D000071000902069010A009861F30820009009
:1038E0002069410A009861F3492000902069810A0B
:1038F000009861F38A200090607C8DF801002069B7
:10390000010B009861F30C3000902069410B009886
:1039100061F34D3000902069810B009861F38E3087
:1039200000902069C10B009861F3CF3000902069AE
:10393000010C009861F3104000902069410C009840
:1039400061F3514000902069810C009861F392402E
:103950000090A07C8DF802002069010D009861F3B1
:10396000175000902069010E009861F318600090D4
:103970002069410E009861F3596000902069810E22
:10398000009861F39A600090E07C8DF80300206954
:10399000010F009861F31C7000902069410F00989E
:1039A00061F35D7000902069810F009861F39E7053
:1039B00000902069C10F009861F3DF70009026B974
:1039C00000986FF30F00009002E0009880B2009022
:1039D0000098216960F30001216100984108206985
:1039E00061F34100206100988108206961F3820041
:1039F00020619DF80000207400980109206961F39E
:103A0000071020610098010A206961F308202061F5
:103A10000098410A206961F3492020610098810AD9
:103A2000206961F38A2020619DF80110617400987B
:103A3000010B206961F30C3020610098410B206973
:103A400061F34D3020610098810B206961F38E3065
:103A500020610098C10B206961F3CF30206100988C
:103A6000010C206961F3104020610098410C20692D
:103A700061F3514020610098810C206961F392400C
:103A800020619DF80210A1740098010D206961F376
:103A9000175020610098010E206961F318602061C1
:103AA0000098410E206961F3596020610098810EF1
:103AB000206961F39A6020619DF80310E174009819
:103AC000010F206961F31C7020610098410F20698B
